{
  "transactions": [
    {
      "hash": "0xbf6311ac8f8a3ac59fd92ddac3e479454527798663f21d492260794c91162e7f",
      "transactionType": "CALL",
      "contractName": "LinkToken",
      "contractAddress": "0x779877A7B0D9E8603169DdbD7836e478b4624789",
      "function": "transferAndCall(address,uint256,bytes)",
      "arguments": [
        "0x8103B0A8A00be2DDC778e6e7eaa21791Cd364625",
        "3000000000000000000",
        "0x00000000000000000000000000000000000000000000000000000000000010fc"
      ],
      "transaction": {
        "type": "0x02",
        "from": "0xce7c5b4e28d26e88eaf12d19b7e920af332fe6d6",
        "to": "0x779877a7b0d9e8603169ddbd7836e478b4624789",
        "gas": "0x13fbe",
        "value": "0x0",
        "data": "0x4000aea00000000000000000000000008103b0a8a00be2ddc778e6e7eaa21791cd36462500000000000000000000000000000000000000000000000029a2241af62c00000000000000000000000000000000000000000000000000000000000000000060000000000000000000000000000000000000000000000000000000000000002000000000000000000000000000000000000000000000000000000000000010fc",
        "nonce": "0x9a",
        "accessList": []
      },
      "additionalContracts": [],
      "isFixedGasLimit": false
    }
  ],
  "receipts": [],
  "libraries": [],
  "pending": [
    "0xbf6311ac8f8a3ac59fd92ddac3e479454527798663f21d492260794c91162e7f"
  ],
  "returns": {},
  "timestamp": 1706713312,
  "chain": 11155111,
  "multi": false,
  "commit": "4d5117c"
}