{
  "transactions": [
    {
      "hash": "0xbf6311ac8f8a3ac59fd92ddac3e479454527798663f21d492260794c91162e7f",
      "transactionType": "CALL",
      "contractName": "LinkToken",
      "contractAddress": "0x779877A7B0D9E8603169DdbD7836e478b4624789",
      "function": "transferAndCall(address,uint256,bytes)",
      "arguments": [
        "0x8103B0A8A00be2DDC778e6e7eaa21791Cd364625",
        "3000000000000000000",
        "0x00000000000000000000000000000000000000000000000000000000000010fc"
      ],
      "transaction": {
        "type": "0x02",
        "from": "0xce7c5b4e28d26e88eaf12d19b7e920af332fe6d6",
        "to": "0x779877a7b0d9e8603169ddbd7836e478b4624789",
        "gas": "0x13fbe",
        "value": "0x0",
        "data": "0x4000aea00000000000000000000000008103b0a8a00be2ddc778e6e7eaa21791cd36462500000000000000000000000000000000000000000000000029a2241af62c00000000000000000000000000000000000000000000000000000000000000000060000000000000000000000000000000000000000000000000000000000000002000000000000000000000000000000000000000000000000000000000000010fc",
        "nonce": "0x9a",
        "accessList": []
      },
      "additionalContracts": [],
      "isFixedGasLimit": false
    }
  ],
  "receipts": [
    {
      "transactionHash": "0xbf6311ac8f8a3ac59fd92ddac3e479454527798663f21d492260794c91162e7f",
      "transactionIndex": "0x33",
      "blockHash": "0x708893c14645c62ef2319bc9f5c74bd70b49037afd71dfb8715d159f89da6305",
      "blockNumber": "0x4f36e4",
      "from": "0xCE7c5b4e28D26e88eaF12d19b7E920AF332fe6d6",
      "to": "0x779877A7B0D9E8603169DdbD7836e478b4624789",
      "cumulativeGasUsed": "0x61fa3b",
      "gasUsed": "0xe77e",
      "contractAddress": null,
      "logs": [
        {
          "address": "0x779877A7B0D9E8603169DdbD7836e478b4624789",
          "topics": [
            "0xddf252ad1be2c89b69c2b068fc378daa952ba7f163c4a11628f55a4df523b3ef",
            "0x000000000000000000000000ce7c5b4e28d26e88eaf12d19b7e920af332fe6d6",
            "0x0000000000000000000000008103b0a8a00be2ddc778e6e7eaa21791cd364625"
          ],
          "data": "0x00000000000000000000000000000000000000000000000029a2241af62c0000",
          "blockHash": "0x708893c14645c62ef2319bc9f5c74bd70b49037afd71dfb8715d159f89da6305",
          "blockNumber": "0x4f36e4",
          "transactionHash": "0xbf6311ac8f8a3ac59fd92ddac3e479454527798663f21d492260794c91162e7f",
          "transactionIndex": "0x33",
          "logIndex": "0x7e",
          "removed": false
        },
        {
          "address": "0x779877A7B0D9E8603169DdbD7836e478b4624789",
          "topics": [
            "0xe19260aff97b920c7df27010903aeb9c8d2be5d310a2c67824cf3f15396e4c16",
            "0x000000000000000000000000ce7c5b4e28d26e88eaf12d19b7e920af332fe6d6",
            "0x0000000000000000000000008103b0a8a00be2ddc778e6e7eaa21791cd364625"
          ],
          "data": "0x00000000000000000000000000000000000000000000000029a2241af62c00000000000000000000000000000000000000000000000000000000000000000040000000000000000000000000000000000000000000000000000000000000002000000000000000000000000000000000000000000000000000000000000010fc",
          "blockHash": "0x708893c14645c62ef2319bc9f5c74bd70b49037afd71dfb8715d159f89da6305",
          "blockNumber": "0x4f36e4",
          "transactionHash": "0xbf6311ac8f8a3ac59fd92ddac3e479454527798663f21d492260794c91162e7f",
          "transactionIndex": "0x33",
          "logIndex": "0x7f",
          "removed": false
        },
        {
          "address": "0x8103B0A8A00be2DDC778e6e7eaa21791Cd364625",
          "topics": [
            "0xd39ec07f4e209f627a4c427971473820dc129761ba28de8906bd56f57101d4f8",
            "0x00000000000000000000000000000000000000000000000000000000000010fc"
          ],
          "data": "0x00000000000000000000000000000000000000000000000092e556b979cdd60d000000000000000000000000000000000000000000000000bc877ad46ff9d60d",
          "blockHash": "0x708893c14645c62ef2319bc9f5c74bd70b49037afd71dfb8715d159f89da6305",
          "blockNumber": "0x4f36e4",
          "transactionHash": "0xbf6311ac8f8a3ac59fd92ddac3e479454527798663f21d492260794c91162e7f",
          "transactionIndex": "0x33",
          "logIndex": "0x80",
          "removed": false
        }
      ],
      "status": "0x1",
      "logsBloom": "0x0000001400000000000000000000000000000000000000020000000002000000000000000000800000000000000000000008000000000000000000000000000000000000000000000000000800000000000000200000000000002000000000000000000000000000000000000000000000000000400000000000001000000000000000000c0000a0000000000000800010000020000000000000000000000000000000000000000000000040000000000000000000000000000400000000000000000002000000000000000000000000000000000000000100000000000000000000000008000000000000000000000000000000000000000000000000000000",
      "type": "0x2",
      "effectiveGasPrice": "0x763516270"
    }
  ],
  "libraries": [],
  "pending": [],
  "returns": {},
  "timestamp": 1706713326,
  "chain": 11155111,
  "multi": false,
  "commit": "4d5117c"
}